{
  "contractName": "SimpleSwap",
  "abi": [
    {
      "inputs": [
        {
          "internalType": "uint256",
          "name": "x",
          "type": "uint256"
        },
        {
          "internalType": "uint256",
          "name": "y",
          "type": "uint256"
        }
      ],
      "stateMutability": "nonpayable",
      "type": "constructor"
    },
    {
      "anonymous": false,
      "inputs": [
        {
          "indexed": true,
          "internalType": "address",
          "name": "provider",
          "type": "address"
        },
        {
          "indexed": false,
          "internalType": "uint256",
          "name": "amountX",
          "type": "uint256"
        },
        {
          "indexed": false,
          "internalType": "uint256",
          "name": "amountY",
          "type": "uint256"
        }
      ],
      "name": "LiquidityAdded",
      "type": "event"
    },
    {
      "anonymous": false,
      "inputs": [
        {
          "indexed": true,
          "internalType": "address",
          "name": "provider",
          "type": "address"
        },
        {
          "indexed": false,
          "internalType": "uint256",
          "name": "amountX",
          "type": "uint256"
        },
        {
          "indexed": false,
          "internalType": "uint256",
          "name": "amountY",
          "type": "uint256"
        }
      ],
      "name": "LiquidityWithdrawn",
      "type": "event"
    },
    {
      "anonymous": false,
      "inputs": [
        {
          "indexed": true,
          "internalType": "address",
          "name": "trader",
          "type": "address"
        },
        {
          "indexed": false,
          "internalType": "uint256",
          "name": "amountIn",
          "type": "uint256"
        },
        {
          "indexed": false,
          "internalType": "uint256",
          "name": "amountOut",
          "type": "uint256"
        },
        {
          "indexed": false,
          "internalType": "bool",
          "name": "isXtoY",
          "type": "bool"
        }
      ],
      "name": "Swapped",
      "type": "event"
    },
    {
      "inputs": [],
      "name": "X",
      "outputs": [
        {
          "internalType": "uint256",
          "name": "",
          "type": "uint256"
        }
      ],
      "stateMutability": "view",
      "type": "function",
      "constant": true
    },
    {
      "inputs": [],
      "name": "Y",
      "outputs": [
        {
          "internalType": "uint256",
          "name": "",
          "type": "uint256"
        }
      ],
      "stateMutability": "view",
      "type": "function",
      "constant": true
    },
    {
      "inputs": [
        {
          "internalType": "address",
          "name": "",
          "type": "address"
        }
      ],
      "name": "liquidityProviderShares",
      "outputs": [
        {
          "internalType": "uint256",
          "name": "",
          "type": "uint256"
        }
      ],
      "stateMutability": "view",
      "type": "function",
      "constant": true
    },
    {
      "inputs": [],
      "name": "owner",
      "outputs": [
        {
          "internalType": "address",
          "name": "",
          "type": "address"
        }
      ],
      "stateMutability": "view",
      "type": "function",
      "constant": true
    },
    {
      "inputs": [
        {
          "internalType": "uint256",
          "name": "x",
          "type": "uint256"
        }
      ],
      "name": "addLiquidity",
      "outputs": [],
      "stateMutability": "payable",
      "type": "function",
      "payable": true
    },
    {
      "inputs": [
        {
          "internalType": "uint256",
          "name": "x",
          "type": "uint256"
        }
      ],
      "name": "withdrawLiquidity",
      "outputs": [],
      "stateMutability": "nonpayable",
      "type": "function"
    },
    {
      "inputs": [
        {
          "internalType": "uint256",
          "name": "x",
          "type": "uint256"
        }
      ],
      "name": "swapXForY",
      "outputs": [],
      "stateMutability": "payable",
      "type": "function",
      "payable": true
    },
    {
      "inputs": [
        {
          "internalType": "uint256",
          "name": "y",
          "type": "uint256"
        }
      ],
      "name": "swapYForX",
      "outputs": [],
      "stateMutability": "payable",
      "type": "function",
      "payable": true
    }
  ],
  "bytecode": "0x60806040523480156200001157600080fd5b50604051620011c5380380620011c58339818101604052810190620000379190620002a1565b600082118015620000485750600081115b6200008a576040517f08c379a0000000000000000000000000000000000000000000000000000000008152600401620000819062000349565b60405180910390fd5b33600260006101000a81548173ffffffffffffffffffffffffffffffffffffffff021916908373ffffffffffffffffffffffffffffffffffffffff1602179055508160008190555080600181905550620000f78183620000eb91906200039a565b620001d860201b60201c565b60036000600260009054906101000a900473ffffffffffffffffffffffffffffffffffffffff1673ffffffffffffffffffffffffffffffffffffffff1673ffffffffffffffffffffffffffffffffffffffff16815260200190815260200160002081905550600260009054906101000a900473ffffffffffffffffffffffffffffffffffffffff1673ffffffffffffffffffffffffffffffffffffffff167fac1d76749e5447b7b16f5ab61447e1bd502f3bb4807af3b28e620d1700a6ee458383604051620001c8929190620003f6565b60405180910390a25050620004c5565b600060038211156200024d5781905060006001600284620001fa919062000452565b6200020691906200048a565b90505b818110156200024657809150600281828562000226919062000452565b6200023291906200048a565b6200023e919062000452565b905062000209565b506200025c565b600082146200025b57600190505b5b919050565b600080fd5b6000819050919050565b6200027b8162000266565b81146200028757600080fd5b50565b6000815190506200029b8162000270565b92915050565b60008060408385031215620002bb57620002ba62000261565b5b6000620002cb858286016200028a565b9250506020620002de858286016200028a565b9150509250929050565b600082825260208201905092915050565b7f496e697469616c206c69717569646974792063616e6e6f74206265207a65726f600082015250565b600062000331602083620002e8565b91506200033e82620002f9565b602082019050919050565b60006020820190508181036000830152620003648162000322565b9050919050565b7f4e487b7100000000000000000000000000000000000000000000000000000000600052601160045260246000fd5b6000620003a78262000266565b9150620003b48362000266565b9250828202620003c48162000266565b91508282048414831517620003de57620003dd6200036b565b5b5092915050565b620003f08162000266565b82525050565b60006040820190506200040d6000830185620003e5565b6200041c6020830184620003e5565b9392505050565b7f4e487b7100000000000000000000000000000000000000000000000000000000600052601260045260246000fd5b60006200045f8262000266565b91506200046c8362000266565b9250826200047f576200047e62000423565b5b828204905092915050565b6000620004978262000266565b9150620004a48362000266565b9250828201905080821115620004bf57620004be6200036b565b5b92915050565b610cf080620004d56000396000f3fe60806040526004361061007b5760003560e01c80635608d0d31161004e5780635608d0d31461010c5780638da5cb5b14610149578063c1599bd914610174578063d7da2e721461019f5761007b565b80630a861f2a14610080578063160ffde5146100a957806345b3fe42146100c557806351c6590a146100f0575b600080fd5b34801561008c57600080fd5b506100a760048036038101906100a29190610839565b6101bb565b005b6100c360048036038101906100be9190610839565b610424565b005b3480156100d157600080fd5b506100da610526565b6040516100e79190610875565b60405180910390f35b61010a60048036038101906101059190610839565b61052c565b005b34801561011857600080fd5b50610133600480360381019061012e91906108ee565b61063e565b6040516101409190610875565b60405180910390f35b34801561015557600080fd5b5061015e610656565b60405161016b919061092a565b60405180910390f35b34801561018057600080fd5b5061018961067c565b6040516101969190610875565b60405180910390f35b6101b960048036038101906101b49190610839565b610682565b005b6000600360003373ffffffffffffffffffffffffffffffffffffffff1673ffffffffffffffffffffffffffffffffffffffff168152602001908152602001600020541161023d576040517f08c379a0000000000000000000000000000000000000000000000000000000008152600401610234906109a2565b60405180910390fd5b600080546001548361024f91906109f1565b6102599190610a62565b90506000610271828461026c91906109f1565b610784565b9050600054831115801561028757506001548211155b6102c6576040517f08c379a00000000000000000000000000000000000000000000000000000000081526004016102bd90610adf565b60405180910390fd5b600360003373ffffffffffffffffffffffffffffffffffffffff1673ffffffffffffffffffffffffffffffffffffffff16815260200190815260200160002054811115610348576040517f08c379a000000000000000000000000000000000000000000000000000000000815260040161033f90610b4b565b60405180910390fd5b826000808282546103599190610b6b565b9250508190555081600160008282546103729190610b6b565b9250508190555080600360003373ffffffffffffffffffffffffffffffffffffffff1673ffffffffffffffffffffffffffffffffffffffff16815260200190815260200160002060008282546103c89190610b6b565b925050819055503373ffffffffffffffffffffffffffffffffffffffff167fb195a67e698c5700e4f48f7b7748dda3a206ee2767ef024b61a26d7b17b2d63a8484604051610417929190610b9f565b60405180910390a2505050565b600081118015610435575060015481105b610474576040517f08c379a000000000000000000000000000000000000000000000000000000000815260040161046b90610c14565b60405180910390fd5b6000816001546104849190610c34565b6000548361049291906109f1565b61049c9190610a62565b905081600160008282546104b09190610c34565b92505081905550806000808282546104c89190610b6b565b925050819055503373ffffffffffffffffffffffffffffffffffffffff167f5aa8e665a6e1c6a7d2c5b99a4189b04b54f8c24e567a02d8fb7d4a63f57e8d6b8383600060405161051a93929190610c83565b60405180910390a25050565b60015481565b600080546001548361053e91906109f1565b6105489190610a62565b90508160008082825461055b9190610c34565b9250508190555080600160008282546105749190610c34565b925050819055506000610591828461058c91906109f1565b610784565b905080600360003373ffffffffffffffffffffffffffffffffffffffff1673ffffffffffffffffffffffffffffffffffffffff16815260200190815260200160002060008282546105e29190610c34565b925050819055503373ffffffffffffffffffffffffffffffffffffffff167fac1d76749e5447b7b16f5ab61447e1bd502f3bb4807af3b28e620d1700a6ee458484604051610631929190610b9f565b60405180910390a2505050565b60036020528060005260406000206000915090505481565b600260009054906101000a900473ffffffffffffffffffffffffffffffffffffffff1681565b60005481565b600081118015610693575060005481105b6106d2576040517f08c379a00000000000000000000000000000000000000000000000000000000081526004016106c990610c14565b60405180910390fd5b6000816000546106e29190610c34565b600154836106f091906109f1565b6106fa9190610a62565b90508160008082825461070d9190610c34565b9250508190555080600160008282546107269190610b6b565b925050819055503373ffffffffffffffffffffffffffffffffffffffff167f5aa8e665a6e1c6a7d2c5b99a4189b04b54f8c24e567a02d8fb7d4a63f57e8d6b8383600160405161077893929190610c83565b60405180910390a25050565b600060038211156107eb57819050600060016002846107a39190610a62565b6107ad9190610c34565b90505b818110156107e55780915060028182856107ca9190610a62565b6107d49190610c34565b6107de9190610a62565b90506107b0565b506107f9565b600082146107f857600190505b5b919050565b600080fd5b6000819050919050565b61081681610803565b811461082157600080fd5b50565b6000813590506108338161080d565b92915050565b60006020828403121561084f5761084e6107fe565b5b600061085d84828501610824565b91505092915050565b61086f81610803565b82525050565b600060208201905061088a6000830184610866565b92915050565b600073ffffffffffffffffffffffffffffffffffffffff82169050919050565b60006108bb82610890565b9050919050565b6108cb816108b0565b81146108d657600080fd5b50565b6000813590506108e8816108c2565b92915050565b600060208284031215610904576109036107fe565b5b6000610912848285016108d9565b91505092915050565b610924816108b0565b82525050565b600060208201905061093f600083018461091b565b92915050565b600082825260208201905092915050565b7f4e6f742061206c69717569646974792070726f76696465720000000000000000600082015250565b600061098c601883610945565b915061099782610956565b602082019050919050565b600060208201905081810360008301526109bb8161097f565b9050919050565b7f4e487b7100000000000000000000000000000000000000000000000000000000600052601160045260246000fd5b60006109fc82610803565b9150610a0783610803565b9250828202610a1581610803565b91508282048414831517610a2c57610a2b6109c2565b5b5092915050565b7f4e487b7100000000000000000000000000000000000000000000000000000000600052601260045260246000fd5b6000610a6d82610803565b9150610a7883610803565b925082610a8857610a87610a33565b5b828204905092915050565b7f496e73756666696369656e74206c697175696469747900000000000000000000600082015250565b6000610ac9601683610945565b9150610ad482610a93565b602082019050919050565b60006020820190508181036000830152610af881610abc565b9050919050565b7f496e73756666696369656e742073686172657300000000000000000000000000600082015250565b6000610b35601383610945565b9150610b4082610aff565b602082019050919050565b60006020820190508181036000830152610b6481610b28565b9050919050565b6000610b7682610803565b9150610b8183610803565b9250828203905081811115610b9957610b986109c2565b5b92915050565b6000604082019050610bb46000830185610866565b610bc16020830184610866565b9392505050565b7f496e76616c696420616d6f756e74000000000000000000000000000000000000600082015250565b6000610bfe600e83610945565b9150610c0982610bc8565b602082019050919050565b60006020820190508181036000830152610c2d81610bf1565b9050919050565b6000610c3f82610803565b9150610c4a83610803565b9250828201905080821115610c6257610c616109c2565b5b92915050565b60008115159050919050565b610c7d81610c68565b82525050565b6000606082019050610c986000830186610866565b610ca56020830185610866565b610cb26040830184610c74565b94935050505056fea26469706673582212207d37c89da24cc4669f3256af53673abab27ebc582d22b4a722f1668f114ada1f64736f6c63430008130033",
  "immutableReferences": {},
  "source": "// SPDX-License-Identifier: MIT\npragma solidity 0.8.19;\n\ncontract SimpleSwap {\n    // Tokens X and Y reserves\n    uint256 public X;\n    uint256 public Y;\n\n    // Owner of the contract\n    address public owner;\n\n    // Mapping to track liquidity providers and their shares\n    mapping(address => uint256) public liquidityProviderShares;\n\n    // Events\n    event LiquidityAdded(address indexed provider, uint256 amountX, uint256 amountY);\n    event LiquidityWithdrawn(address indexed provider, uint256 amountX, uint256 amountY);\n    event Swapped(address indexed trader, uint256 amountIn, uint256 amountOut, bool isXtoY);\n\n    constructor(uint256 x, uint256 y) {\n        require(x > 0 && y > 0, \"Initial liquidity cannot be zero\");\n\n        // Set owner\n        owner = msg.sender;\n\n        // Initialize reserves\n        X = x;\n        Y = y;\n\n        // Owner becomes the first liquidity provider\n        liquidityProviderShares[owner] = sqrt(x * y);\n\n        emit LiquidityAdded(owner, x, y);\n    }\n\n    // Modifier to check if the sender is a liquidity provider\n    modifier onlyLiquidityProvider() {\n        require(liquidityProviderShares[msg.sender] > 0, \"Not a liquidity provider\");\n        _;\n    }\n\n    // Function to add liquidity, maintaining the same exchange rate\n    function addLiquidity(uint256 x) external payable {\n        // Calculate amountY to maintain the exchange rate\n        uint256 y = (x * Y) / X;\n\n        // Update reserves\n        X += x;\n        Y += y;\n\n        // Update liquidity shares\n        uint256 l = sqrt(x * y);\n        liquidityProviderShares[msg.sender] += l;\n\n        emit LiquidityAdded(msg.sender, x, y);\n    }\n\n    // Function to withdraw liquidity, maintaining the same exchange rate\n    function withdrawLiquidity(uint256 x) external onlyLiquidityProvider {\n        // Calculate the proportional amounts of X and Y to withdraw\n        uint256 y = (x * Y) / X;\n        uint256 l = sqrt(x * y);\n\n        require(x <= X && y <= Y, \"Insufficient liquidity\");\n        require(l <= liquidityProviderShares[msg.sender], \"Insufficient shares\");\n\n        // Update reserves and shares\n        X -= x;\n        Y -= y;\n        liquidityProviderShares[msg.sender] -= l;\n\n        emit LiquidityWithdrawn(msg.sender, x, y);\n    }\n\n    // Function to swap token X for token Y (or vice versa), respecting the x*y = k rule\n    function swapXForY(uint256 x) external payable {\n        require(x > 0 && x < X, \"Invalid amount\");\n\n        // Calculate amount of Y based on the constant product formula\n        uint256 y = (x * Y) / (X + x);\n\n        // Update reserves\n        X += x;\n        Y -= y;\n\n        emit Swapped(msg.sender, x, y, true);\n    }\n\n    function swapYForX(uint256 y) external payable {\n        require(y > 0 && y < Y, \"Invalid amount\");\n\n        // Calculate amount of X based on the constant product formula\n        uint256 x = (y * X) / (Y + y);\n\n        // Update reserves\n        Y += y;\n        X -= x;\n\n        emit Swapped(msg.sender, y, x, false);\n    }\n\n    function sqrt(uint256 y) internal pure returns (uint256 z) {\n        if (y > 3) {\n            z = y;\n            uint256 x = y / 2 + 1;\n            while (x < z) {\n                z = x;\n                x = (y / x + x) / 2;\n            }\n        } else if (y != 0) {\n            z = 1;\n        }\n    }\n}",
  "sourcePath": "/Users/goffard/code/BLOCKASTICS/solidity/IRMIA-swap/contracts/SimpleSwap.sol",
  "compiler": {
    "name": "solc",
    "version": "0.8.19+commit.7dd6d404.Emscripten.clang"
  },
  "schemaVersion": "3.4.16",
  "updatedAt": "2024-10-10T15:10:18.637Z",
  "networkType": "ethereum",
  "devdoc": {
    "kind": "dev",
    "methods": {},
    "version": 1
  },
  "userdoc": {
    "kind": "user",
    "methods": {},
    "version": 1
  }
}